:1000000007C1000035C1000033C1000031C100004C
:100010002FC100002DC100002BC1000029C100002C
:1000200027C1000025C1000023C1000021C100003C
:100030001FC100001DC100001BC1000019C100004C
:1000400017C1000015C1000013C1000011C100005C
:100050000FC100000DC100000BC100001AC4000058
:1000600007C10000E0C30000B5C3000001C10000EB
:10007000FFC00000FDC00000FBC00000F9C0000090
:10008000F7C00000F5C00000F3C00000F1C00000A0
:10009000EFC00000EDC00000EBC00000E9C00000B0
:1000A000E7C00000E5C00000E3C00000E1C00000C0
:1000B000DFC00000DDC00000DBC00000D9C00000D0
:1000C000D7C00000D5C00000D3C00000D1C00000E0
:1000D000CFC00000CDC00000CBC00000C9C00000F0
:1000E000C7C00000BB02BE02AD02B102B502F502FC
:1000F000C202C602CC02D002D402DA02DE02E2025E
:10010000F502E802EC02F00200000A0B02090C0DF5
:100110000E080703040100000000000000000000BA
:1001200000000000000000000000000000000000CF
:10013000000000001211100000000000000000008C
:1001400000000000000000000000000000000000AF
:100150002200250028002B002E003100340002016F
:100160000000050108010B01000021002400270008
:100170002A002D00300033000101000004010701B6
:100180000A0105050505070508080808020202021C
:100190000A0A080804040404010101010101010123
:1001A0000303030303030303040707070C0C0C0CEE
:1001B0000C0C0C0C020202020606060606060606D7
:1001C0000B0B0B0B0B0B0B0B010210202008081064
:1001D00020401020408002010201080402010102B7
:1001E0000408102040808040201008040201800490
:1001F00002018040201008040201080402010102EB
:10020000040810204080010204081020408093045C
:1002100011241FBECFEFD1E2DEBFCDBF00E00CBF87
:1002200023E0A0E3B2E001C01D92A337B207E1F7DB
:1002300012E0A0E0B2E0E6ECF3E100E00BBF02C0A8
:1002400007900D92A033B107D9F711E0C8E0D1E0D3
:1002500000E006C021970109802FFE010E94990944
:10026000C730D10780E00807A9F7A3D30C94E109B0
:10027000C7CE90E0FC01E853FE4F2491FC01EE57FD
:10028000FE4F8491882399F090E0880F991FFC011C
:10029000E859FE4FA591B491FC01E25BFE4F8591B8
:1002A00094918FB7F894EC91E22BEC938FBF089563
:1002B000CF92DF92EF92FF920F931F93CF93DF9332
:1002C0006C017A018B01C0E0D0E0CE15DF0589F02A
:1002D000D8016D918D01D601ED91FC910190F081D5
:1002E000E02DC6011995892B11F47E0102C02196DB
:1002F000ECCFC701DF91CF911F910F91FF90EF904D
:10030000DF90CF900895089580E090E00895FC017B
:10031000538D448D252F30E0842F90E0821B930B6A
:10032000541710F0CF96089501970895FC01918D10
:10033000828D981761F0828DDF01A80FB11D5D9647
:100340008C91928D9F5F9F73928F90E008958FEFB5
:100350009FEF0895FC01918D828D981731F0828D69
:10036000E80FF11D858D90E008958FEF9FEF0895C0
:10037000FC01918D228D892F90E0805C9F4F821B24
:1003800091098F73992708958EEB92E0F1DF21E0B8
:10039000892B09F420E0822F0895FC01848DDF0170
:1003A000A80FB11DA35ABF4F2C91848D90E00196E8
:1003B0008F739927848FA689B7892C93A089B189D7
:1003C0008C9180648C93938D848D981306C00288E1
:1003D000F389E02D80818F7D80830895EF92FF92D5
:1003E0000F931F93CF93DF93EC0181E0888F9B8D58
:1003F0008C8D981305C0E889F989808185FD23C01B
:10040000F62E0B8D10E00F5F1F4F0F731127E02E9C
:100410008C8DE8120BC00FB607FCFACFE889F9897A
:10042000808185FFF5CFCE01B8DFF2CF8B8DFE0145
:10043000E80FF11DE35AFF4FF0820B8FEA89FB8929
:100440008081806207C0EE89FF896083E889F9892D
:1004500080818064808381E090E0DF91CF911F9163
:100460000F91FF90EF900895CF93DF93EC01888D6B
:100470008823C1F0EA89FB89808185FD05C0A889B0
:10048000B9898C9186FD0EC00FB607FCF5CF80812F
:1004900085FFF2CFA889B9898C9185FFEDCFCE0178
:1004A0007CDFE8CFDF91CF91089580E090E0892B49
:1004B00019F06ADF811125C080E090E0892B41F0BE
:1004C00080E090E0892B21F00E94000081111CC087
:1004D00080E090E0892B41F080E090E0892B21F0D2
:1004E0000E940000811113C080E090E0892BA1F0F0
:1004F00080E090E0892B81F00E94000081110AC009
:1005000008950E940000D8CF0E940000E1CF0E9411
:100510000000EACF0C9400000895362F90E0FC0113
:10052000E85FFE4F4491FC01E853FE4F2491FC012B
:10053000EE57FE4F9491992309F46AC0442309F4BD
:1005400054C050E0FA013197E231F10508F04DC096
:100550008827EE58FF4F8F4FECC6809180008F7731
:1005600007C0809180008F7D03C080918000877FCD
:10057000809380003AC084B58F7702C084B58F7DA8
:1005800084BD33C08091B0008F7703C08091B000EC
:100590008F7D8093B00029C0809190008F7707C035
:1005A000809190008F7D03C080919000877F809321
:1005B00090001BC08091A0008F7707C08091A000A1
:1005C0008F7D03C08091A000877F8093A0000DC025
:1005D000809120018F7707C0809120018F7D03C01B
:1005E00080912001877F80932001E92FF0E0EE0FBA
:1005F000FF1FE25BFE4FA591B4918FB7F894EC9189
:10060000311103C020952E2301C02E2B2C938FBFB8
:100610000895863308F0865390917B00282F287028
:10062000977F922B90937B008770806480937C00EF
:1006300080917A00806480937A0080917A0086FDB0
:10064000FCCF809178002091790090E0922B089562
:100650003FB7F8948091350290913602A09137020D
:10066000B091380226B5A89B05C02F3F19F001961E
:10067000A11DB11D3FBFBA2FA92F982F8827820F28
:10068000911DA11DB11DBC01CD0142E0660F771F78
:10069000881F991F4A95D1F708958F929F92AF9224
:1006A000BF92CF92DF92EF92FF92D2DF4B015C01BB
:1006B00085E0C82ED12CE12CF12CCADFDC01CB0166
:1006C00088199909AA09BB09883E9340A105B1057B
:1006D00058F021E0C21AD108E108F10888EE880E2E
:1006E00083E0981EA11CB11CC114D104E104F104E3
:1006F00021F7FF90EF90DF90CF90BF90AF909F9049
:100700008F9008958EBD00000DB407FEFDCF8EB50D
:1007100008959CB59F7D9CBD9CB5937F9CBD9CB569
:100720009C7F9CBD9DB591609DBD682F80915D03B0
:10073000F4DE80916F03909170038230910538F060
:10074000880F991F880F991F05970197F1F7089552
:1007500081E0DFCF1F93CF93DF931F92CDB7DEB73A
:10076000182F80E0D6DF812F8F71CCDF8FEFCADFAB
:100770008983EEDF89810F90DF91CF911F910895DA
:100780001F93CF93DF931F92CDB7DEB7182F80E072
:100790006983BFDF812F8F718062B4DF182F698179
:1007A000862FB0DFD5DF812F0F90DF91CF911F9182
:1007B0000895CF93DF931F92CDB7DEB780E0A9DF16
:1007C00081EEA0DF8983C4DF89810F90DF91CF9113
:1007D0000895B7D51F920F920FB60F9211240BB642
:1007E0000F922F933F934F935F936F937F938F93CA
:1007F0009F93AF93BF93EF93FF938EEB92E0CDDD8A
:10080000FF91EF91BF91AF919F918F917F916F91E8
:100810005F914F913F912F910F900BBE0F900FBEA4
:100820000F901F9018951F920F920FB60F921124E0
:100830000BB60F922F938F939F93EF93FF93E091BB
:10084000CE02F091CF028081E091D402F091D502E6
:1008500082FD12C090818091D7028F5F8F732091AB
:10086000D802821751F0E091D702F0E0E254FD4F38
:10087000958F8093D70201C08081FF91EF919F9166
:100880008F912F910F900BBE0F900FBE0F901F9066
:1008900018951F920F920FB60F9211242F933F932A
:1008A0008F939F93AF93BF938091310290913202C7
:1008B000A0913302B09134023091300223E0230F33
:1008C0002D3720F40196A11DB11D05C026E8230F88
:1008D0000296A11DB11D20933002809331029093A6
:1008E0003202A0933302B09334028091350290918A
:1008F0003602A0913702B09138020196A11DB11DB8
:100900008093350290933602A0933702B093380259
:10091000BF91AF919F918F913F912F910F900FBEFB
:100920000F901F901895EEEBF2E01382128288EE82
:1009300093E0A0E0B0E084839583A683B78384E04E
:1009400092E09183808385EC90E09587848784ECA6
:1009500090E09787868780EC90E0918B808B81EC8C
:1009600090E0938B828B82EC90E0958B848B86EC6D
:1009700090E0978B868B118E128E138E148EEBE582
:10098000F3E089E090E0918380838AE090E09383B4
:100990008283168280E28783108685E0868785E0E1
:1009A00090E0A0E0B0E0848B958BA68BB78B11868E
:1009B0000895CF93DF93CDB7DEB729970FB6F8949C
:1009C000DEBF0FBECDBF789484B5826084BD84B590
:1009D000816084BD85B5826085BD85B5816085BD3A
:1009E00080916E00816080936E00109281008091F2
:1009F000810082608093810080918100816080937A
:100A00008100809180008160809380008091B1009E
:100A100084608093B1008091B00081608093B000C9
:100A2000809191008260809391008091910081601B
:100A300080939100809190008160809390008091DC
:100A4000A10082608093A1008091A10081608093C9
:100A5000A1008091A00081608093A000809121017D
:100A60008260809321018091210181608093210126
:100A70008091200181608093200180917A008460C0
:100A800080937A0080917A00826080937A008091CE
:100A90007A00816080937A0080917A0080688093E8
:100AA0007A001092C10080915B0390915C032091C9
:100AB0005D0330915E038217930709F0DADB8091C2
:100AC0005D0390915E0320915B0330915C032817D6
:100AD000390709F0CEDB1FB7F894809139028111F4
:100AE00020C0E7EBF1E08491EDEFF1E09491E82F85
:100AF000F0E0EE0FFF1FE859FE4FA591B491EC9185
:100B0000E92319F461E085E308DD85E3B2DB8CB508
:100B100080618CBD8CB580648CBD84E3AADB83E3EB
:100B2000A8DB809139028F5F809339021FBF8091CB
:100B30005B0390915C0320915D0330915E0382170B
:100B4000930711F060E0E9DC81E0E3DDA6DD6CE015
:100B500080E016DE6FE584E013DE86E0FBDD877D56
:100B6000182F10628BE990E0A0E0B0E080936B0357
:100B700090936C03A0936D03B0936E03612F86E096
:100B8000FFDD86E0E7DD811709F435C186E0E2DDAF
:100B900086E0E0DD45E550E060E070E040936B0307
:100BA00050936C0360936D0370936E03682F677DA1
:100BB00086E0E6DD86E0CEDD80E0ABDD80E5A2DD2F
:100BC00083E7A0DDC5DD60E08DE1DADD60E08CE18A
:100BD000D7DD1092630360E787E0D2DD6CE485E047
:100BE000CFDD80E096DD82EE8DDDB2DDE2DD80E0FE
:100BF000B1DD81FD05C0682F626080E0C1DD4DDDA3
:100C000080E0A8DD682F6E7F80E0BADD64E685E0D5
:100C1000B7DDE091CE02F091CF0282E08083E091D7
:100C2000CA02F091CB021082E091CC02F091CD0289
:100C30008FEC80831092D602E091D202F091D30221
:100C400086E08083E091D002F091D10280818061C2
:100C50008083E091D002F091D1028081886080830E
:100C6000E091D002F091D102808180688083E09190
:100C7000D002F091D10280818F7D808381EE8983C3
:100C800080EF8A838B8388EE8C838D831E821F8204
:100C90001886D090690380E03CDD8AE233DD8E0166
:100CA0000F5F1F4F7801C02ED00EDE1429F0F70120
:100CB00081917F0127DDF9CF4BDDF090690380E062
:100CC00028DD80E31FDDFC0CF01629F0F80181918E
:100CD0008F0118DDF9CF3CDD6091620381E150DDC9
:100CE00092E1C92E92E0D92E20E8B22E3AE3E32E0B
:100CF00032E0F32E86E38DDC9093BB028093BA0240
:100D000087E387DC8093BC029093BD029F938F930F
:100D10008091BB028F938091BA028F93DF92CF9222
:100D20001F92BF92FF92EF9210D30FB6F894DEBFDE
:100D30000FBECDBFF70101900020E9F73197AF0159
:100D40004A5352406AE372E08EEB92E0B1DA42E03D
:100D500050E06CE272E08EEB92E0AADA109162034E
:100D6000012F153008F004E080916303811102C067
:100D7000101B01C010E080E0CCDC80EAC3DC8AEB11
:100D8000882E82E0982E015028F0F40181914F01C5
:100D9000B9DCF9CF112321F080E0B4DC1150FACF97
:100DA000D7DC80915B0390915C0320915D033091CF
:100DB0005E038217930711F061E0AFDB80E0A9DCEE
:100DC0008FEFA0DC8987C4DC89858073B9F38091BB
:100DD0005B0390915C0320915D0330915E03821769
:100DE000930711F060E099DB60E787E0C9DC84FDE0
:100DF000E0DC5BDB7FCF81E080936103C7CE2F9285
:100E00003F924F925F926F927F928F929F92AF929A
:100E1000BF92CF92DF92EF92FF920F931F93CF93E7
:100E2000DF93CDB7DEB72C970FB6F894DEBF0FBEB9
:100E3000CDBF7C016B018A01FC0117821682838180
:100E400081FFB0C1CE0101964C01F7019381F601FB
:100E500093FD859193FF81916F01882309F49EC1D1
:100E6000853239F493FD859193FF81916F0185322D
:100E700021F4B70190E0C7D1E8CF512C312C20E00C
:100E80002032A0F48B3269F030F4803259F0833292
:100E900069F420612CC08D3239F0803339F421603F
:100EA00026C02260246023C0286021C027FD27C0FF
:100EB00030ED380F3A3078F426FF06C0FAE05F9E36
:100EC000300D1124532E13C08AE0389E300D1124AA
:100ED000332E20620CC08E3221F426FD5FC12064C7
:100EE00006C08C3611F4206802C0883641F4F60141
:100EF00093FD859193FF81916F018111C1CF982F4F
:100F00009F7D9554933028F40C5F1F4FFFE3F983C6
:100F10000DC0833631F0833771F0833509F057C047
:100F200021C0F801808189830E5F1F4F44244394C0
:100F3000512C540114C03801F2E06F0E711CF801FD
:100F4000A080B18026FF03C0652D70E002C06FEF66
:100F50007FEFC5012C874CD12C0183012C852F7785
:100F6000222E16C03801F2E06F0E711CF801A0802D
:100F7000B18026FF03C0652D70E002C06FEF7FEFE8
:100F8000C5012C872AD12C012C852068222E8301B3
:100F900023FC19C0832D90E048165906A0F4B70130
:100FA00080E290E030D13A94F5CFF50127FC8591AD
:100FB00027FE81915F01B70190E025D131103A946D
:100FC000F1E04F1A51084114510479F7DEC084361C
:100FD00011F0893631F5F80127FF07C06081718172
:100FE000828193810C5F1F4F08C060817181072E41
:100FF000000C880B990B0E5F1F4F2F76722E97FFF8
:1010000009C090958095709561957F4F8F4F9F4F48
:101010002068722E2AE030E0A4012DD1A82EA81855
:1010200043C0853729F42F7EB22E2AE030E025C058
:10103000F22FF97FBF2E8F36C1F018F4883579F082
:10104000ADC0803719F0883721F0A8C02F2F20615C
:10105000B22EB4FE0DC08B2D8460B82E09C024FFC3
:101060000AC09F2F9660B92E06C028E030E005C068
:1010700020E130E002C020E132E0F801B7FE07C015
:1010800060817181828193810C5F1F4F06C06081F6
:10109000718180E090E00E5F1F4FA401ECD0A82E7C
:1010A000A818FB2DFF777F2E76FE0BC0372D3E7FD5
:1010B000A51450F474FE0AC072FC08C0372D3E7EA1
:1010C00005C0BA2C372D03C0BA2C01C0B52C34FF93
:1010D0000DC0FE01EA0DF11D8081803311F4397ECF
:1010E00009C032FF06C0B394B39404C0832F86783E
:1010F00009F0B39433FD12C030FF06C05A2CB3146C
:1011000018F4530C5B18B32CB31460F4B70180E2ED
:1011100090E03C8778D0B3943C85F6CFB31410F4BC
:101120003B1801C0312C34FF11C0B70180E390E0BF
:101130003C8769D03C8532FF16C031FD03C088E78B
:1011400090E002C088E590E0B7010CC0832F86785C
:1011500051F031FF02C08BE201C080E237FD8DE229
:10116000B70190E050D0A51430F4B70180E390E0CF
:101170004AD05A94F8CFAA94F401EA0DF11D808167
:10118000B70190E040D0A110F6CF332009F45DCE36
:10119000B70180E290E037D03A94F7CFF70186812B
:1011A000978102C08FEF9FEF2C960FB6F894DEBFA9
:1011B0000FBECDBFDF91CF911F910F91FF90EF90A8
:1011C000DF90CF90BF90AF909F908F907F906F9067
:1011D0005F904F903F902F900895FC0105906150D3
:1011E00070400110D8F7809590958E0F9F1F08953D
:1011F000FC016150704001900110D8F780959095E6
:101200008E0F9F1F08950F931F93CF93DF93FB01C2
:10121000238121FD03C08FEF9FEF28C022FF16C05E
:1012200046815781248135814217530744F4A081B8
:10123000B1819D012F5F3F4F318320838C932681A5
:1012400037812F5F3F4F3783268310C0EB01092F73
:10125000182F0084F185E02D1995892BE1F68E81F8
:101260009F8101969F838E83812F902FDF91CF9155
:101270001F910F910895FA01AA27283051F12031CA
:1012800081F1E8946F936E7F6E5F7F4F8F4F9F4F1A
:10129000AF4FB1E03ED0B4E03CD0670F781F891F5C
:1012A0009A1FA11D680F791F8A1F911DA11D6A0F2A
:1012B000711D811D911DA11D20D009F468943F91DD
:1012C0002AE0269F11243019305D3193DEF6CF01DC
:1012D0000895462F4770405D4193B3E00FD0C9F7A2
:1012E000F6CF462F4F70405D4A3318F0495D31FD0F
:1012F0004052419302D0A9F7EACFB4E0A695979562
:10130000879577956795BA95C9F700976105710537
:1013100008959B01AC010A2E069457954795379581
:101320002795BA95C9F7620F731F841F951FA01DDB
:101330000895EE0FFF1F881F8BBF0790F691E02DD9
:10134000199481E090E0F8943CC00F931F93CF93E1
:10135000DF93CDB7DEB72E970FB6F894DEBF0FBE82
:10136000CDBF0E891F89888D998D26E02C831A8325
:10137000098397FF02C080E090E801979E838D83E8
:10138000AE01445E5F4F6A8D7B8DCE01019637DDE5
:101390004D815E8157FD0AC02F8138854217530762
:1013A0000CF49A01F801E20FF31F10822E960FB68B
:1013B000F894DEBF0FBECDBFDF91CF911F910F918B
:0613C0000895F894FFCF30
:1013C60000000000EE01580187013402B8019601C1
:1013D600AA0143616E616C20303A202564097C09BC
:1013E60043616E616C20313A202564000D0A0000CD
:00000001FF
